{
  "contractName": "DStore",
  "abi": [
    {
      "anonymous": false,
      "inputs": [
        {
          "indexed": true,
          "internalType": "address",
          "name": "user",
          "type": "address"
        },
        {
          "indexed": false,
          "internalType": "string",
          "name": "ipfsHash",
          "type": "string"
        },
        {
          "indexed": false,
          "internalType": "uint256",
          "name": "timestamp",
          "type": "uint256"
        }
      ],
      "name": "FileAdded",
      "type": "event"
    },
    {
      "anonymous": false,
      "inputs": [
        {
          "indexed": true,
          "internalType": "address",
          "name": "user",
          "type": "address"
        },
        {
          "indexed": false,
          "internalType": "string",
          "name": "ipfsHash",
          "type": "string"
        },
        {
          "indexed": false,
          "internalType": "uint256",
          "name": "timestamp",
          "type": "uint256"
        }
      ],
      "name": "FileRemoved",
      "type": "event"
    },
    {
      "inputs": [],
      "name": "totalFiles",
      "outputs": [
        {
          "internalType": "uint256",
          "name": "",
          "type": "uint256"
        }
      ],
      "stateMutability": "view",
      "type": "function",
      "constant": true
    },
    {
      "inputs": [
        {
          "internalType": "string",
          "name": "_fileName",
          "type": "string"
        },
        {
          "internalType": "string",
          "name": "_ipfsHash",
          "type": "string"
        }
      ],
      "name": "addFile",
      "outputs": [],
      "stateMutability": "nonpayable",
      "type": "function"
    },
    {
      "inputs": [],
      "name": "getFileCount",
      "outputs": [
        {
          "internalType": "uint256",
          "name": "",
          "type": "uint256"
        }
      ],
      "stateMutability": "view",
      "type": "function",
      "constant": true
    },
    {
      "inputs": [],
      "name": "getAllFiles",
      "outputs": [
        {
          "internalType": "string[]",
          "name": "fileNames",
          "type": "string[]"
        },
        {
          "internalType": "string[]",
          "name": "ipfsHashes",
          "type": "string[]"
        },
        {
          "internalType": "uint256[]",
          "name": "timestamps",
          "type": "uint256[]"
        },
        {
          "internalType": "bool[]",
          "name": "statuses",
          "type": "bool[]"
        }
      ],
      "stateMutability": "view",
      "type": "function",
      "constant": true
    },
    {
      "inputs": [
        {
          "internalType": "uint256",
          "name": "_index",
          "type": "uint256"
        }
      ],
      "name": "removeFile",
      "outputs": [],
      "stateMutability": "nonpayable",
      "type": "function"
    }
  ],
  "bytecode": "0x608060405234801561001057600080fd5b50611417806100206000396000f3fe608060405234801561001057600080fd5b50600436106100575760003560e01c8063248bfc3b1461005c57806392cf0557146100785780639926b03f14610096578063bab50cc9146100b2578063ff24b5d5146100d0575b600080fd5b61007660048036038101906100719190610a28565b6100f1565b005b61008061022e565b60405161008d9190610ab9565b60405180910390f35b6100b060048036038101906100ab9190610b00565b610234565b005b6100ba610492565b6040516100c79190610ab9565b60405180910390f35b6100d86104db565b6040516100e89493929190610df6565b60405180910390f35b600060405180608001604052808481526020018381526020014281526020016001151581525090506000803373ffffffffffffffffffffffffffffffffffffffff1673ffffffffffffffffffffffffffffffffffffffff16815260200190815260200160002081908060018154018082558091505060019003906000526020600020906004020160009091909190915060008201518160000190816101969190611063565b5060208201518160010190816101ac9190611063565b506040820151816002015560608201518160030160006101000a81548160ff02191690831515021790555050503373ffffffffffffffffffffffffffffffffffffffff167f4af20a599a5de167b13e4d5d035a3056671ffc48882eb499ff2a70ca4351de99834260405161022192919061117f565b60405180910390a2505050565b60015481565b6000803373ffffffffffffffffffffffffffffffffffffffff1673ffffffffffffffffffffffffffffffffffffffff1681526020019081526020016000208054905081106102b7576040517f08c379a00000000000000000000000000000000000000000000000000000000081526004016102ae906111fb565b60405180910390fd5b6000803373ffffffffffffffffffffffffffffffffffffffff1673ffffffffffffffffffffffffffffffffffffffff16815260200190815260200160002081815481106103075761030661121b565b5b906000526020600020906004020160030160009054906101000a900460ff16610365576040517f08c379a000000000000000000000000000000000000000000000000000000000815260040161035c90611296565b60405180910390fd5b60008060003373ffffffffffffffffffffffffffffffffffffffff1673ffffffffffffffffffffffffffffffffffffffff16815260200190815260200160002082815481106103b7576103b661121b565b5b906000526020600020906004020160030160006101000a81548160ff0219169083151502179055503373ffffffffffffffffffffffffffffffffffffffff167f9d823eed20a4fe9618aed5b87a9c322e08d03044c5bbaee3726282058ea2c6016000803373ffffffffffffffffffffffffffffffffffffffff1673ffffffffffffffffffffffffffffffffffffffff16815260200190815260200160002083815481106104675761046661121b565b5b90600052602060002090600402016001014260405161048792919061133a565b60405180910390a250565b60008060003373ffffffffffffffffffffffffffffffffffffffff1673ffffffffffffffffffffffffffffffffffffffff16815260200190815260200160002080549050905090565b60608060608060008060003373ffffffffffffffffffffffffffffffffffffffff1673ffffffffffffffffffffffffffffffffffffffff1681526020019081526020016000208054905090508067ffffffffffffffff811115610541576105406108fd565b5b60405190808252806020026020018201604052801561057457816020015b606081526020019060019003908161055f5790505b5094508067ffffffffffffffff811115610591576105906108fd565b5b6040519080825280602002602001820160405280156105c457816020015b60608152602001906001900390816105af5790505b5093508067ffffffffffffffff8111156105e1576105e06108fd565b5b60405190808252806020026020018201604052801561060f5781602001602082028036833780820191505090505b5092508067ffffffffffffffff81111561062c5761062b6108fd565b5b60405190808252806020026020018201604052801561065a5781602001602082028036833780820191505090505b50915060005b818110156108c65760008060003373ffffffffffffffffffffffffffffffffffffffff1673ffffffffffffffffffffffffffffffffffffffff16815260200190815260200160002082815481106106ba576106b961121b565b5b90600052602060002090600402016040518060800160405290816000820180546106e390610e86565b80601f016020809104026020016040519081016040528092919081815260200182805461070f90610e86565b801561075c5780601f106107315761010080835404028352916020019161075c565b820191906000526020600020905b81548152906001019060200180831161073f57829003601f168201915b5050505050815260200160018201805461077590610e86565b80601f01602080910402602001604051908101604052809291908181526020018280546107a190610e86565b80156107ee5780601f106107c3576101008083540402835291602001916107ee565b820191906000526020600020905b8154815290600101906020018083116107d157829003601f168201915b50505050508152602001600282015481526020016003820160009054906101000a900460ff161515151581525050905080600001518783815181106108365761083561121b565b5b602002602001018190525080602001518683815181106108595761085861121b565b5b6020026020010181905250806040015185838151811061087c5761087b61121b565b5b60200260200101818152505080606001518483815181106108a05761089f61121b565b5b6020026020010190151590811515815250505080806108be90611399565b915050610660565b505090919293565b6000604051905090565b600080fd5b600080fd5b600080fd5b600080fd5b6000601f19601f8301169050919050565b7f4e487b7100000000000000000000000000000000000000000000000000000000600052604160045260246000fd5b610935826108ec565b810181811067ffffffffffffffff82111715610954576109536108fd565b5b80604052505050565b60006109676108ce565b9050610973828261092c565b919050565b600067ffffffffffffffff821115610993576109926108fd565b5b61099c826108ec565b9050602081019050919050565b82818337600083830152505050565b60006109cb6109c684610978565b61095d565b9050828152602081018484840111156109e7576109e66108e7565b5b6109f28482856109a9565b509392505050565b600082601f830112610a0f57610a0e6108e2565b5b8135610a1f8482602086016109b8565b91505092915050565b60008060408385031215610a3f57610a3e6108d8565b5b600083013567ffffffffffffffff811115610a5d57610a5c6108dd565b5b610a69858286016109fa565b925050602083013567ffffffffffffffff811115610a8a57610a896108dd565b5b610a96858286016109fa565b9150509250929050565b6000819050919050565b610ab381610aa0565b82525050565b6000602082019050610ace6000830184610aaa565b92915050565b610add81610aa0565b8114610ae857600080fd5b50565b600081359050610afa81610ad4565b92915050565b600060208284031215610b1657610b156108d8565b5b6000610b2484828501610aeb565b91505092915050565b600081519050919050565b600082825260208201905092915050565b6000819050602082019050919050565b600081519050919050565b600082825260208201905092915050565b60005b83811015610b93578082015181840152602081019050610b78565b60008484015250505050565b6000610baa82610b59565b610bb48185610b64565b9350610bc4818560208601610b75565b610bcd816108ec565b840191505092915050565b6000610be48383610b9f565b905092915050565b6000602082019050919050565b6000610c0482610b2d565b610c0e8185610b38565b935083602082028501610c2085610b49565b8060005b85811015610c5c5784840389528151610c3d8582610bd8565b9450610c4883610bec565b925060208a01995050600181019050610c24565b50829750879550505050505092915050565b600081519050919050565b600082825260208201905092915050565b6000819050602082019050919050565b610ca381610aa0565b82525050565b6000610cb58383610c9a565b60208301905092915050565b6000602082019050919050565b6000610cd982610c6e565b610ce38185610c79565b9350610cee83610c8a565b8060005b83811015610d1f578151610d068882610ca9565b9750610d1183610cc1565b925050600181019050610cf2565b5085935050505092915050565b600081519050919050565b600082825260208201905092915050565b6000819050602082019050919050565b60008115159050919050565b610d6d81610d58565b82525050565b6000610d7f8383610d64565b60208301905092915050565b6000602082019050919050565b6000610da382610d2c565b610dad8185610d37565b9350610db883610d48565b8060005b83811015610de9578151610dd08882610d73565b9750610ddb83610d8b565b925050600181019050610dbc565b5085935050505092915050565b60006080820190508181036000830152610e108187610bf9565b90508181036020830152610e248186610bf9565b90508181036040830152610e388185610cce565b90508181036060830152610e4c8184610d98565b905095945050505050565b7f4e487b7100000000000000000000000000000000000000000000000000000000600052602260045260246000fd5b60006002820490506001821680610e9e57607f821691505b602082108103610eb157610eb0610e57565b5b50919050565b60008190508160005260206000209050919050565b60006020601f8301049050919050565b600082821b905092915050565b600060088302610f197fffffffffffffffffffffffffffffffffffffffffffffffffffffffffffffffff82610edc565b610f238683610edc565b95508019841693508086168417925050509392505050565b6000819050919050565b6000610f60610f5b610f5684610aa0565b610f3b565b610aa0565b9050919050565b6000819050919050565b610f7a83610f45565b610f8e610f8682610f67565b848454610ee9565b825550505050565b600090565b610fa3610f96565b610fae818484610f71565b505050565b5b81811015610fd257610fc7600082610f9b565b600181019050610fb4565b5050565b601f82111561101757610fe881610eb7565b610ff184610ecc565b81016020851015611000578190505b61101461100c85610ecc565b830182610fb3565b50505b505050565b600082821c905092915050565b600061103a6000198460080261101c565b1980831691505092915050565b60006110538383611029565b9150826002028217905092915050565b61106c82610b59565b67ffffffffffffffff811115611085576110846108fd565b5b61108f8254610e86565b61109a828285610fd6565b600060209050601f8311600181146110cd57600084156110bb578287015190505b6110c58582611047565b86555061112d565b601f1984166110db86610eb7565b60005b82811015611103578489015182556001820191506020850194506020810190506110de565b86831015611120578489015161111c601f891682611029565b8355505b6001600288020188555050505b505050505050565b600082825260208201905092915050565b600061115182610b59565b61115b8185611135565b935061116b818560208601610b75565b611174816108ec565b840191505092915050565b600060408201905081810360008301526111998185611146565b90506111a86020830184610aaa565b9392505050565b7f496e646578206f7574206f6620626f756e647300000000000000000000000000600082015250565b60006111e5601383611135565b91506111f0826111af565b602082019050919050565b60006020820190508181036000830152611214816111d8565b9050919050565b7f4e487b7100000000000000000000000000000000000000000000000000000000600052603260045260246000fd5b7f46696c6520616c72656164792072656d6f766564000000000000000000000000600082015250565b6000611280601483611135565b915061128b8261124a565b602082019050919050565b600060208201905081810360008301526112af81611273565b9050919050565b600081546112c381610e86565b6112cd8186611135565b945060018216600081146112e857600181146112fe57611331565b60ff198316865281151560200286019350611331565b61130785610eb7565b60005b838110156113295781548189015260018201915060208101905061130a565b808801955050505b50505092915050565b6000604082019050818103600083015261135481856112b6565b90506113636020830184610aaa565b9392505050565b7f4e487b7100000000000000000000000000000000000000000000000000000000600052601160045260246000fd5b60006113a482610aa0565b91507fffffffffffffffffffffffffffffffffffffffffffffffffffffffffffffffff82036113d6576113d561136a565b5b60018201905091905056fea2646970667358221220a224de004f4e296c5fbf65aa94cb2d977c216e9798030d87f84e19023a491b3264736f6c63430008110033",
  "immutableReferences": {},
  "source": "// SPDX-License-Identifier: MIT\r\npragma solidity ^0.8.0;\r\n\r\ncontract DStore {\r\n    // Structure to hold file metadata\r\n    struct FileMetadata {\r\n        string fileName;\r\n        string ipfsHash;\r\n        uint256 timestamp;\r\n        bool isEncrypted;\r\n    }\r\n\r\n    // Maps user addresses to their files\r\n    mapping(address => FileMetadata[]) private userFiles;\r\n\r\n    // Total files stored in the contract\r\n    uint256 public totalFiles;\r\n\r\n    // Events\r\n    event FileAdded(address indexed user, string ipfsHash, uint256 timestamp);\r\n    event FileRemoved(address indexed user, string ipfsHash, uint256 timestamp);\r\n\r\n    function addFile(string memory _fileName, string memory _ipfsHash) public {\r\n        FileMetadata memory newFile = FileMetadata({\r\n            fileName: _fileName,\r\n            ipfsHash: _ipfsHash,\r\n            timestamp: block.timestamp,\r\n            isEncrypted: true\r\n        });\r\n        userFiles[msg.sender].push(newFile);\r\n        emit FileAdded(msg.sender, _ipfsHash, block.timestamp);\r\n    }\r\n\r\n    function getFileCount() public view returns (uint256) {\r\n        return userFiles[msg.sender].length;\r\n    }\r\n\r\n    function getAllFiles()\r\n        public\r\n        view\r\n        returns (\r\n            string[] memory fileNames,\r\n            string[] memory ipfsHashes,\r\n            uint256[] memory timestamps,\r\n            bool[] memory statuses\r\n        )\r\n    {\r\n        uint256 count = userFiles[msg.sender].length;\r\n\r\n        fileNames = new string[](count);\r\n        ipfsHashes = new string[](count);\r\n        timestamps = new uint256[](count);\r\n        statuses = new bool[](count);\r\n\r\n        for (uint256 i = 0; i < count; i++) {\r\n            FileMetadata memory file = userFiles[msg.sender][i];\r\n            fileNames[i] = file.fileName;\r\n            ipfsHashes[i] = file.ipfsHash;\r\n            timestamps[i] = file.timestamp;\r\n            statuses[i] = file.isEncrypted;\r\n        }\r\n\r\n        return (fileNames, ipfsHashes, timestamps, statuses);\r\n    }\r\n\r\n    function removeFile(uint256 _index) public {\r\n        require(_index < userFiles[msg.sender].length, \"Index out of bounds\");\r\n        require(\r\n            userFiles[msg.sender][_index].isEncrypted,\r\n            \"File already removed\"\r\n        );\r\n\r\n        userFiles[msg.sender][_index].isEncrypted = false;\r\n\r\n        // Emit event\r\n        emit FileRemoved(\r\n            msg.sender,\r\n            userFiles[msg.sender][_index].ipfsHash,\r\n            block.timestamp\r\n        );\r\n    }\r\n}\r\n",
  "sourcePath": "C:\\Users\\ayush kumar\\Documents\\verbal\\fileStorage\\contracts\\DStore.sol",
  "compiler": {
    "name": "solc",
    "version": "0.8.17+commit.8df45f5f.Emscripten.clang"
  },
  "schemaVersion": "3.4.16",
  "updatedAt": "2025-04-10T08:24:15.685Z",
  "networkType": "ethereum",
  "devdoc": {
    "kind": "dev",
    "methods": {},
    "version": 1
  },
  "userdoc": {
    "kind": "user",
    "methods": {},
    "version": 1
  }
}